{
  "_format": "hh-sol-artifact-1",
  "contractName": "EnergyMarketplace",
  "sourceName": "contracts/EnergyMarketplace.sol",
  "abi": [
    {
      "inputs": [
        {
          "internalType": "uint256",
          "name": "_offerId",
          "type": "uint256"
        }
      ],
      "name": "buyEnergy",
      "outputs": [],
      "stateMutability": "payable",
      "type": "function"
    },
    {
      "inputs": [
        {
          "internalType": "uint256",
          "name": "_amountKWh",
          "type": "uint256"
        },
        {
          "internalType": "uint256",
          "name": "_priceWei",
          "type": "uint256"
        }
      ],
      "name": "createOffer",
      "outputs": [],
      "stateMutability": "nonpayable",
      "type": "function"
    },
    {
      "inputs": [],
      "name": "getOffersCount",
      "outputs": [
        {
          "internalType": "uint256",
          "name": "",
          "type": "uint256"
        }
      ],
      "stateMutability": "view",
      "type": "function"
    },
    {
      "inputs": [
        {
          "internalType": "uint256",
          "name": "",
          "type": "uint256"
        }
      ],
      "name": "offers",
      "outputs": [
        {
          "internalType": "address",
          "name": "seller",
          "type": "address"
        },
        {
          "internalType": "uint256",
          "name": "amountKWh",
          "type": "uint256"
        },
        {
          "internalType": "uint256",
          "name": "priceWei",
          "type": "uint256"
        },
        {
          "internalType": "bool",
          "name": "active",
          "type": "bool"
        }
      ],
      "stateMutability": "view",
      "type": "function"
    }
  ],
  "bytecode": "0x608060405234801561001057600080fd5b50610661806100206000396000f3fe60806040526004361061003f5760003560e01c80631afed875146100445780632f2e7b751461006d5780638a72ea6a14610098578063bc8a251f146100d8575b600080fd5b34801561005057600080fd5b5061006b600480360381019061006691906103db565b6100f4565b005b34801561007957600080fd5b506100826101da565b60405161008f919061042a565b60405180910390f35b3480156100a457600080fd5b506100bf60048036038101906100ba9190610445565b6101e6565b6040516100cf94939291906104ce565b60405180910390f35b6100f260048036038101906100ed9190610445565b610253565b005b600060405180608001604052803373ffffffffffffffffffffffffffffffffffffffff16815260200184815260200183815260200160011515815250908060018154018082558091505060019003906000526020600020906004020160009091909190915060008201518160000160006101000a81548173ffffffffffffffffffffffffffffffffffffffff021916908373ffffffffffffffffffffffffffffffffffffffff160217905550602082015181600101556040820151816002015560608201518160030160006101000a81548160ff02191690831515021790555050505050565b60008080549050905090565b600081815481106101f657600080fd5b90600052602060002090600402016000915090508060000160009054906101000a900473ffffffffffffffffffffffffffffffffffffffff16908060010154908060020154908060030160009054906101000a900460ff16905084565b600080828154811061026857610267610513565b5b906000526020600020906004020190508060030160009054906101000a900460ff166102c9576040517f08c379a00000000000000000000000000000000000000000000000000000000081526004016102c09061059f565b60405180910390fd5b8060020154341015610310576040517f08c379a00000000000000000000000000000000000000000000000000000000081526004016103079061060b565b60405180910390fd5b60008160030160006101000a81548160ff0219169083151502179055508060000160009054906101000a900473ffffffffffffffffffffffffffffffffffffffff1673ffffffffffffffffffffffffffffffffffffffff166108fc82600201549081150290604051600060405180830381858888f1935050505015801561039b573d6000803e3d6000fd5b505050565b600080fd5b6000819050919050565b6103b8816103a5565b81146103c357600080fd5b50565b6000813590506103d5816103af565b92915050565b600080604083850312156103f2576103f16103a0565b5b6000610400858286016103c6565b9250506020610411858286016103c6565b9150509250929050565b610424816103a5565b82525050565b600060208201905061043f600083018461041b565b92915050565b60006020828403121561045b5761045a6103a0565b5b6000610469848285016103c6565b91505092915050565b600073ffffffffffffffffffffffffffffffffffffffff82169050919050565b600061049d82610472565b9050919050565b6104ad81610492565b82525050565b60008115159050919050565b6104c8816104b3565b82525050565b60006080820190506104e360008301876104a4565b6104f0602083018661041b565b6104fd604083018561041b565b61050a60608301846104bf565b95945050505050565b7f4e487b7100000000000000000000000000000000000000000000000000000000600052603260045260246000fd5b600082825260208201905092915050565b7f4f66666572206e6f742061637469766500000000000000000000000000000000600082015250565b6000610589601083610542565b915061059482610553565b602082019050919050565b600060208201905081810360008301526105b88161057c565b9050919050565b7f4e6f7420656e6f756768204554482073656e7400000000000000000000000000600082015250565b60006105f5601383610542565b9150610600826105bf565b602082019050919050565b60006020820190508181036000830152610624816105e8565b905091905056fea26469706673582212206b06d343221f99bd2cb9f0aba1d431b145aa52c73958915861cd7fa497b170e864736f6c63430008140033",
  "linkReferences": {},
  "deployedLinkReferences": {}
}